{
  "_format": "hh3-artifact-1",
  "contractName": "ProtocolProvenanceRegistry",
  "sourceName": "contracts/ProtocolProvenanceRegistry.sol",
  "abi": [
    {
      "anonymous": false,
      "inputs": [
        {
          "indexed": true,
          "internalType": "address",
          "name": "contractAddress",
          "type": "address"
        },
        {
          "indexed": false,
          "internalType": "string",
          "name": "version",
          "type": "string"
        },
        {
          "indexed": false,
          "internalType": "string",
          "name": "auditHash",
          "type": "string"
        },
        {
          "indexed": false,
          "internalType": "uint256",
          "name": "timestamp",
          "type": "uint256"
        }
      ],
      "name": "ProtocolRegistered",
      "type": "event"
    },
    {
      "inputs": [
        {
          "internalType": "address",
          "name": "contractAddress",
          "type": "address"
        }
      ],
      "name": "getProtocolHistory",
      "outputs": [
        {
          "components": [
            {
              "internalType": "string",
              "name": "protocolName",
              "type": "string"
            },
            {
              "internalType": "address",
              "name": "contractAddress",
              "type": "address"
            },
            {
              "internalType": "string",
              "name": "version",
              "type": "string"
            },
            {
              "internalType": "string",
              "name": "auditHash",
              "type": "string"
            },
            {
              "internalType": "string",
              "name": "commitHash",
              "type": "string"
            },
            {
              "internalType": "string",
              "name": "auditor",
              "type": "string"
            },
            {
              "internalType": "uint256",
              "name": "timestamp",
              "type": "uint256"
            }
          ],
          "internalType": "struct ProtocolProvenanceRegistry.ProtocolRecord[]",
          "name": "",
          "type": "tuple[]"
        }
      ],
      "stateMutability": "view",
      "type": "function"
    },
    {
      "inputs": [
        {
          "internalType": "string",
          "name": "protocolName",
          "type": "string"
        },
        {
          "internalType": "address",
          "name": "contractAddress",
          "type": "address"
        },
        {
          "internalType": "string",
          "name": "version",
          "type": "string"
        },
        {
          "internalType": "string",
          "name": "auditHash",
          "type": "string"
        },
        {
          "internalType": "string",
          "name": "commitHash",
          "type": "string"
        },
        {
          "internalType": "string",
          "name": "auditor",
          "type": "string"
        }
      ],
      "name": "registerProtocolRecord",
      "outputs": [],
      "stateMutability": "nonpayable",
      "type": "function"
    }
  ],
  "bytecode": "0x6080604052348015600e575f5ffd5b50610eac8061001c5f395ff3fe608060405234801561000f575f5ffd5b5060043610610034575f3560e01c806356167c4514610038578063ed4bc49f14610068575b5f5ffd5b610052600480360381019061004d919061067d565b610084565b60405161005f91906108af565b60405180910390f35b610082600480360381019061007d91906109fb565b61044a565b005b60605f5f8373ffffffffffffffffffffffffffffffffffffffff1673ffffffffffffffffffffffffffffffffffffffff1681526020019081526020015f20805480602002602001604051908101604052809291908181526020015f905b8282101561043f578382905f5260205f2090600702016040518060e00160405290815f8201805461011190610b3d565b80601f016020809104026020016040519081016040528092919081815260200182805461013d90610b3d565b80156101885780601f1061015f57610100808354040283529160200191610188565b820191905f5260205f20905b81548152906001019060200180831161016b57829003601f168201915b50505050508152602001600182015f9054906101000a900473ffffffffffffffffffffffffffffffffffffffff1673ffffffffffffffffffffffffffffffffffffffff1673ffffffffffffffffffffffffffffffffffffffff1681526020016002820180546101f690610b3d565b80601f016020809104026020016040519081016040528092919081815260200182805461022290610b3d565b801561026d5780601f106102445761010080835404028352916020019161026d565b820191905f5260205f20905b81548152906001019060200180831161025057829003601f168201915b5050505050815260200160038201805461028690610b3d565b80601f01602080910402602001604051908101604052809291908181526020018280546102b290610b3d565b80156102fd5780601f106102d4576101008083540402835291602001916102fd565b820191905f5260205f20905b8154815290600101906020018083116102e057829003601f168201915b5050505050815260200160048201805461031690610b3d565b80601f016020809104026020016040519081016040528092919081815260200182805461034290610b3d565b801561038d5780601f106103645761010080835404028352916020019161038d565b820191905f5260205f20905b81548152906001019060200180831161037057829003601f168201915b505050505081526020016005820180546103a690610b3d565b80601f01602080910402602001604051908101604052809291908181526020018280546103d290610b3d565b801561041d5780601f106103f45761010080835404028352916020019161041d565b820191905f5260205f20905b81548152906001019060200180831161040057829003601f168201915b50505050508152602001600682015481525050815260200190600101906100e1565b505050509050919050565b5f6040518060e001604052808881526020018773ffffffffffffffffffffffffffffffffffffffff1681526020018681526020018581526020018481526020018381526020014281525090505f5f8773ffffffffffffffffffffffffffffffffffffffff1673ffffffffffffffffffffffffffffffffffffffff1681526020019081526020015f2081908060018154018082558091505060019003905f5260205f2090600702015f909190919091505f820151815f01908161050c9190610d0d565b506020820151816001015f6101000a81548173ffffffffffffffffffffffffffffffffffffffff021916908373ffffffffffffffffffffffffffffffffffffffff16021790555060408201518160020190816105689190610d0d565b50606082015181600301908161057e9190610d0d565b5060808201518160040190816105949190610d0d565b5060a08201518160050190816105aa9190610d0d565b5060c0820151816006015550508573ffffffffffffffffffffffffffffffffffffffff167f6fafa531150956000b157d7b7c55941a466f31dd61ceaf48edf002ef81e6d64e86864260405161060193929190610e33565b60405180910390a250505050505050565b5f604051905090565b5f5ffd5b5f5ffd5b5f73ffffffffffffffffffffffffffffffffffffffff82169050919050565b5f61064c82610623565b9050919050565b61065c81610642565b8114610666575f5ffd5b50565b5f8135905061067781610653565b92915050565b5f602082840312156106925761069161061b565b5b5f61069f84828501610669565b91505092915050565b5f81519050919050565b5f82825260208201905092915050565b5f819050602082019050919050565b5f81519050919050565b5f82825260208201905092915050565b8281835e5f83830152505050565b5f601f19601f8301169050919050565b5f610713826106d1565b61071d81856106db565b935061072d8185602086016106eb565b610736816106f9565b840191505092915050565b61074a81610642565b82525050565b5f819050919050565b61076281610750565b82525050565b5f60e083015f8301518482035f8601526107828282610709565b91505060208301516107976020860182610741565b50604083015184820360408601526107af8282610709565b915050606083015184820360608601526107c98282610709565b915050608083015184820360808601526107e38282610709565b91505060a083015184820360a08601526107fd8282610709565b91505060c083015161081260c0860182610759565b508091505092915050565b5f6108288383610768565b905092915050565b5f602082019050919050565b5f610846826106a8565b61085081856106b2565b935083602082028501610862856106c2565b805f5b8581101561089d578484038952815161087e858261081d565b945061088983610830565b925060208a01995050600181019050610865565b50829750879550505050505092915050565b5f6020820190508181035f8301526108c7818461083c565b905092915050565b5f5ffd5b5f5ffd5b7f4e487b71000000000000000000000000000000000000000000000000000000005f52604160045260245ffd5b61090d826106f9565b810181811067ffffffffffffffff8211171561092c5761092b6108d7565b5b80604052505050565b5f61093e610612565b905061094a8282610904565b919050565b5f67ffffffffffffffff821115610969576109686108d7565b5b610972826106f9565b9050602081019050919050565b828183375f83830152505050565b5f61099f61099a8461094f565b610935565b9050828152602081018484840111156109bb576109ba6108d3565b5b6109c684828561097f565b509392505050565b5f82601f8301126109e2576109e16108cf565b5b81356109f284826020860161098d565b91505092915050565b5f5f5f5f5f5f60c08789031215610a1557610a1461061b565b5b5f87013567ffffffffffffffff811115610a3257610a3161061f565b5b610a3e89828a016109ce565b9650506020610a4f89828a01610669565b955050604087013567ffffffffffffffff811115610a7057610a6f61061f565b5b610a7c89828a016109ce565b945050606087013567ffffffffffffffff811115610a9d57610a9c61061f565b5b610aa989828a016109ce565b935050608087013567ffffffffffffffff811115610aca57610ac961061f565b5b610ad689828a016109ce565b92505060a087013567ffffffffffffffff811115610af757610af661061f565b5b610b0389828a016109ce565b9150509295509295509295565b7f4e487b71000000000000000000000000000000000000000000000000000000005f52602260045260245ffd5b5f6002820490506001821680610b5457607f821691505b602082108103610b6757610b66610b10565b5b50919050565b5f819050815f5260205f209050919050565b5f6020601f8301049050919050565b5f82821b905092915050565b5f60088302610bc97fffffffffffffffffffffffffffffffffffffffffffffffffffffffffffffffff82610b8e565b610bd38683610b8e565b95508019841693508086168417925050509392505050565b5f819050919050565b5f610c0e610c09610c0484610750565b610beb565b610750565b9050919050565b5f819050919050565b610c2783610bf4565b610c3b610c3382610c15565b848454610b9a565b825550505050565b5f5f905090565b610c52610c43565b610c5d818484610c1e565b505050565b5b81811015610c8057610c755f82610c4a565b600181019050610c63565b5050565b601f821115610cc557610c9681610b6d565b610c9f84610b7f565b81016020851015610cae578190505b610cc2610cba85610b7f565b830182610c62565b50505b505050565b5f82821c905092915050565b5f610ce55f1984600802610cca565b1980831691505092915050565b5f610cfd8383610cd6565b9150826002028217905092915050565b610d16826106d1565b67ffffffffffffffff811115610d2f57610d2e6108d7565b5b610d398254610b3d565b610d44828285610c84565b5f60209050601f831160018114610d75575f8415610d63578287015190505b610d6d8582610cf2565b865550610dd4565b601f198416610d8386610b6d565b5f5b82811015610daa57848901518255600182019150602085019450602081019050610d85565b86831015610dc75784890151610dc3601f891682610cd6565b8355505b6001600288020188555050505b505050505050565b5f82825260208201905092915050565b5f610df6826106d1565b610e008185610ddc565b9350610e108185602086016106eb565b610e19816106f9565b840191505092915050565b610e2d81610750565b82525050565b5f6060820190508181035f830152610e4b8186610dec565b90508181036020830152610e5f8185610dec565b9050610e6e6040830184610e24565b94935050505056fea264697066735822122088bb0a7f938554fd33ba6e37e4695e4767eac5559f28db8f45e54dded7651ed464736f6c634300081c0033",
  "linkReferences": {},
  "deployedLinkReferences": {},
  "immutableReferences": {},
  "inputSourceName": "project/contracts/ProtocolProvenanceRegistry.sol",
  "buildInfoId": "solc-0_8_28-800c4b580ecdbe3c3f6791b27ba014abd85ec516"
}